:100000000C94C3060C94EB060C94EB060C94EB06D4
:100010000C94EB060C94EB060C94EB060C94EB069C
:100020000C94EB060C94EB060C948A110C94FC11C6
:100030000C94EB060C94EB060C94EB060C94EB067C
:100040000C94EB060C94EB060C94EB060C94EB066C
:100050000C94EB060C94EB060C94EB060C94BA1A79
:100060000C94EB060C94EB060C94EB060C94EB064C
:100070000C94EB060C94EB060C94EB060C94EB063C
:100080000C9454170C94EB060C94EB060C94EB06B2
:100090000C94EB060C94EB060C94EB060C94EB061C
:1000A0000C94EB060C94EB060C94EB0625285A28CE
:1000B0001B2A8928BE2802291B2AA429DB29971973
:1000C0009A1989198D199119BB19BB19BB199E1958
:1000D000A219A619AC19B019BB19B619080000006D
:1000E000BE922449123EABAAAA2ABECDCCCC4C3E2D
:1000F00000000080BEABAAAAAA3E00000000BF001C
:100100000000803F0000000000084178D3BB438717
:10011000D1133D190E3CC3BD4282AD2B3E68EC822B
:1001200076BED98FE1A93E4C80EFFFBE01C4FF7FB0
:100130003F0000000000D5F08D14A1C881CFD9F197
:10014000AF20001402130212021502070208020A6D
:10015000020A010B020B010902090104010C01064C
:10016000010000000000000000000000000000008E
:1001700000000007FFFFFFFFFFFFFFFFFFFFFFFF84
:10018000F0000007FFFFFFFFFFFFFFFFFFFFFFFF84
:10019000F0000007C00B40170007C007F801780106
:1001A00070000007400FC01F800BA007F401F80388
:1001B00070100007400FC017800BA005F801F8036E
:1001C000F0000007400FC03F800BA007E801E806E1
:1001D000F0000007400FC03F800BA007F001E807C8
:1001E000F00000071863C00F1043A007C001E8210A
:1001F000F0800007FFFF7FF3EF9F9FFDDFFF6FDFC2
:10020000F0800007E85F4007E03FC001C001781FB1
:10021000F0000007EFDF7FF7CF9F9FFDBFFF6FDF8D
:10022000F0000087E85F4007E03FC00D8001781FC5
:10023000F0040007F87FC3F3D05FA07B0081E83FA4
:10024000F0000007407FC03FD05FA0BE81E1E8051D
:10025000F0000007407FC00FD05FA0BF02E1E803BD
:10026000F0000007407FC01FD05FA0BD03E1E8029F
:10027000F0000007407FC017D05FA0BE07E1E80193
:10028000F00000073FDFBFFFDFDFBFB9F5DEFFFE95
:1002900070200007007F0003C01F803803807800B3
:1002A00070000807FFFFFFFFFFFFFFFFFFFFFFFFDB
:1002B000F0000007FFFFFFFFFFFFFFFFFFFFFFFF53
:1002C000F00000000000000000000000000000003E
:1002D000000400000000000000000000000000001A
:1002E00000400000000000000000200000000000AE
:1002F00000000000000008000800000002000100EB
:10030000000000000000100000000000000040009D
:10031000000000400200100400C000030070000153
:10032000030000000004080000C0020700D801E03C
:1003300005000000000A000001608007809800703E
:100340000D80000000040001C360001B813407B46D
:1003500009840000800000034260003AE22C077428
:1003600031800001C0000005CCD000D9F42A077408
:1003700061400003E0000209D8B81F35E82B83E68E
:1003800003C00806E0300015E0BFE0257427C00672
:1003900003A00005D0580025E0AE0044F42781EA10
:1003A00003600009B09C00E5F09F0044B4228B2E4E
:1003B00002F0001159160385F09700846A218B2AF8
:1003C00003F8FF9FFF9FF9FFCFFE7F9F9F9F9C2E0B
:1003D0000058FF9FFF9FF9FFCFFE7F9F9F9F83DA0B
:1003E000002C00425C0B8005EE2686043C0001DEFA
:1003F000007C00824E0DC004F715C0083B081FBCEE
:10040000087601822F07E0047F83E0082F041F9401
:1004100008DD01042F83F0043F41F0102D84182AD9
:1004200008FF02083781F8021FC1DC102EC2003E0F
:1004300009D7061817C0FE021FE0BF0017C3380017
:10044000001704101BA07F010BE04EC00BE1382AFF
:10045000040B08210FD03FC187F037F00DD00044C6
:10046000041F084109F81FB083F8197807F8001431
:10047000041F104105F80FFC40FC069602F8002806
:100480000434106102FC07EE207F01FD817400023C
:100490008462202101BA027BA07F80FE40BA001452
:1004A0000441602100DD01FEE07FC03FB07E1C0002
:1004B00004004021105FC07FF82BE01DD83D0100F3
:1004C00004208041102DE01FE426F01EFC0FC080A8
:1004D00004208081082EF007BE1F680F7E07704041
:1004E000082001020816F8076E0FBC06B300982317
:1004F00008400204080B7C13B303940148C0660152
:1005000080440400000BEE09DF006600CFF031806C
:10051000408400000000F70C2B80330067181FC0D8
:10052000B0840000000012061C400DC013000460DF
:1005300008840000000008020C0000000D00003CD0
:10054000060000000000000100000000068000001E
:100550000300000000000000000000000000000098
:1005600000000C3A56BC5AAC360C147EA876DCB6A9
:100570005A14FF1F407F7F401FFFE38E39FFFF3873
:100580008CE3C0B04CFFFF0C30C0CFF0DF3A3FDF50
:10059000FFCFFA0DFAADFAFDFAFF80F088F7FFF809
:1005A000F080FC423F1C0F7FF00F0000FF24DBFFB8
:1005B00000FF0000F8D6FFFF02FCFF1F647B7B6496
:1005C0001FFFE0F00FFFFF0FF0E000006E6F6F6E97
:1005D0000000426F7E0DAD46B85F426F7E0D4DA6A6
:1005E000589F426F7E0D2D46985F5FB846AD0D7ED9
:1005F0006F429F58A64D0D7E6F425F98462D0D7E2F
:100600006F4282C3E23D3DB6D89F0283C2FDBDE684
:10061000D81F020382DDDD06181F00800ADADE8C97
:1006200070F89FD8B63D3DE2C3821FD8E6BDFDC23B
:1006300083021F1806DDDD820302F8708CDEDA0A01
:1006400080000204030705020B03030000C0410001
:1006500000C04100007042000000420000984200CB
:10066000005C4206030F0F07030F06E0E0EE0EEEFC
:10067000E0E00060D0F66D7FD6F06080E098869E66
:10068000F8E08070C8E4F4F4F4F8700000000000B2
:1006900000000018346EEEEE6E34187EFFC1F5F5E2
:1006A000FDFF7E6CFEB97B7FB9FA6C2070D8FCDC54
:1006B000F850202050F8DCFCD8702024243C7E66C2
:1006C00066BD9999BD66667E3C242410287CAA7C70
:1006D00028100020B0A8F8F8B8BC1E1EBCB8F8F866
:1006E000A8B0201C32797D7F7F3E1C3C72F9FDFF53
:1006F000FF7E3C1C766AF776EB763C3C76EB76F731
:100700006A361C1C267B5D773E2A551C267B5D774E
:100710003E552A552A3E775D7B261C2A553E775D3D
:100720007B261C004062186C181408340A54AC6014
:10073000B100000200451A3D04AA041029142A162B
:100740000D4210000030D868ECF85CDCE87CD8F092
:1007500020000000000B143F2936173B1F2F121EEC
:100760000B0000306C74BA6A7E4C3001010101014B
:1007700001010101010101000000001088FE7D7DE2
:10078000FE8810080B0002020201000904000001AB
:1007900002020000052400100105240101010424C7
:1007A0000206052406000107058103100040090424
:1007B0000100020A000000070502024000000705D0
:1007C00083024000000403090441726475696E6F7E
:1007D000204C4C430041726475696E6F204C656F0C
:1007E0006E6172646F00120100020000004041233C
:1007F000360000010102030112010002EF02014074
:100800004123360000010102030100000000240022
:1008100027002A002D0030000000000025002800DD
:100820002B002E003100040404040403040502021A
:100830000202040302020202060606060606040479
:10084000020202040404080201104080401020400B
:1008500080408008020401804020100201108010B6
:10086000204040200000000200090F0000030401A6
:10087000000C00000000000000000000000000006C
:1008800000000000000000003E5B4F5B3E3E6B4FEF
:100890006B3E1C3E7C3E1C183C7E3C181C577D5712
:1008A0001C1C5E7F5E1C00183C1800FFE7C3E7FFBE
:1008B0000018241800FFE7DBE7FF30483A060E2651
:1008C00029792926407F050507407F05253F5A3CA9
:1008D000E73C5A7F3E1C1C08081C1C3E7F14227FEC
:1008E00022145F5F005F5F06097F017F00668995C4
:1008F0006A606060606094A2FFA29408047E0408AD
:1009000010207E201008082A1C08081C2A08081E2F
:10091000101010100C1E0C1E0C30383E3830060E15
:100920003E0E06000000000000005F00000007000F
:100930000700147F147F14242A7F2A1223130864CB
:100940006236495620500008070300001C2241006F
:100950000041221C002A1C7F1C2A08083E080800AF
:10096000807030000808080808000060600020104F
:100970000804023E5149453E00427F400072494909
:1009800049462141494D331814127F1027454545EA
:10099000393C4A494931412111090736494949360B
:1009A000464949291E0000140000004034000000A0
:1009B00008142241141414141400412214080201D2
:1009C0005909063E415D594E7C1211127C7F4949FE
:1009D00049363E414141227F4141413E7F4949499B
:1009E000417F090909013E414151737F0808087F91
:1009F00000417F41002040413F017F081422417F98
:100A0000404040407F021C027F7F0408107F3E412F
:100A100041413E7F090909063E4151215E7F091986
:100A20002946264949493203017F01033F4040409E
:100A30003F1F2040201F3F4038403F63140814638D
:100A400003047804036159494D43007F4141410249
:100A500004081020004141417F040201020440408B
:100A6000404040000307080020545478407F284449
:100A700044383844444428384444287F3854545433
:100A80001800087E090218A4A49C787F0804047842
:100A900000447D40002040403D007F10284400007D
:100AA000417F40007C047804787C08040478384452
:100AB000444438FC1824241818242418FC7C080406
:100AC0000408485454542404043F44243C40402027
:100AD0007C1C2040201C3C4030403C4428102844D2
:100AE0004C9090907C4464544C4400083641000083
:100AF00000770000004136080002010204023C2693
:100B000023263C1EA1A161123A4040207A38545459
:100B100055592155557941215454784121555478DE
:100B20004020545579400C1E527212395555555972
:100B3000395454545939555454580000457C410097
:100B400002457D420001457C40F0292429F0F0282F
:100B50002528F07C545545002054547C547C0A09C7
:100B60007F4932494949323248484832324A484836
:100B7000303A4141217A3A42402078009DA0A07D40
:100B800039444444393D4040403D3C24FF242448FE
:100B90007E4943662B2FFC2F2BFF0929F620C088A6
:100BA0007E090320545479410000447D4130484877
:100BB0004A32384040227A007A0A0A727D0D193191
:100BC0007D2629292F28262929292630484D4020ED
:100BD000380808080808080808382F10C8ACBA2FC9
:100BE000102834FA00007B000008142A1422221472
:100BF0002A14089500220095AA005500AAAA55AA11
:100C000055AA000000FF00101010FF00141414FF7C
:100C1000001010FF00FF1010F010F0141414FC006E
:100C20001414F700FF0000FF00FF1414F404FC1478
:100C30001417101F10101F101F1414141F00101071
:100C400010F0000000001F101010101F10101010E6
:100C5000F010000000FF101010101010101010FF06
:100C600010000000FF140000FF00FF00001F10171D
:100C70000000FC04F414141710171414F404F40006
:100C800000FF00F714141414141414F700F71414CC
:100C900014171410101F101F141414F4141010F053
:100CA00010F000001F101F0000001F14000000FCC7
:100CB000140000F010F01010FF10FF141414FF14B3
:100CC0001010101F00000000F010FFFFFFFFFFF0EA
:100CD000F0F0F0F0FFFFFF0000000000FFFF0F0F3B
:100CE0000F0F0F38444438447C2A2A3E147E0202F7
:100CF0000606027E027E0263554941633844443C45
:100D000004407E201E2006027E020299A5E7A599D6
:100D10001C2A492A1C4C7201724C304A4D4D30300D
:100D200048784830BC625A463D3E494949007E01F8
:100D300001017E2A2A2A2A2A44445F444440514A17
:100D4000444040444A51400000FF0103E080FF005E
:100D50000008086B6B083612362436060F090F069A
:100D6000000018180000001010003040FF010100C2
:100D70001F01011E00191D1712003C3C3C3C0000E5
:100D8000000000007B2E11241FBECFEFDAE0DEBF93
:100D9000CDBF27E0AEE6B1E001C01D92AE3EB20786
:100DA000E1F711E0A0E0B1E0E2E8F4E602C005906E
:100DB0000D92AE36B107D9F716E0C3ECD6E004C009
:100DC0002197FE010E94BC2EC23CD107C9F70E94A8
:100DD000041B0C943F320C940000FC018485958523
:100DE00097FD0BC09FB7F89482E08093E900809153
:100DF000F2009FBF90E0019608959FB7F89482E0BB
:100E00008093E9008091F2009FBF90E008950F93D6
:100E10001F93CF93DF931F92CDB7DEB78C01FC01F8
:100E20008485958597FF0EC0CE0101960E947E169F
:100E3000019719F4298130E002C02FEF3FEFF8014C
:100E400035872487F801848595850F90DF91CF91B0
:100E50001F910F910895CF92DF92EF92FF92CF935F
:100E6000DF93C9E1D0E084E6C82ED12CE12CF12C2F
:100E700061E082E00E946C1960E085E00E946C19DC
:100E80000E94B831A70196010E94DC31CB010E947B
:100E90000B1A60E082E00E946C1961E085E00E941C
:100EA0006C190E94B831A70196010E94DC31CB0178
:100EB0000E940B1A2197E1F6DF91CF91FF90EF90FE
:100EC000DF90CF900895CF92DF92EF92FF920F9331
:100ED0001F93CF93DF93C1E3D2E083E3C82E82E078
:100EE000D82E92E3E92E92E0F92E8881882309F426
:100EF0004BC0823079F08330D1F0813039F5F60182
:100F0000608170E0F701808108E028E043E657E067
:100F100090E01AC0F601608170E064507109F70139
:100F2000808190E000E120E143E457E00CC0F6014D
:100F3000608170E064507109F701808190E000E108
:100F400020E143E257E004970E9405150E94AE1A83
:100F50000B811C812D813E81DC01CB01801B910B1B
:100F6000A20BB30B85369105A105B10568F0888108
:100F70008F5F843010F4888301C018820E94AE1AFB
:100F80006B837C838D839E832796F7E0CF0ED11CE5
:100F900087E0E80EF11CE2E0C037DE0709F0A5CFDC
:100FA000DF91CF911F910F91FF90EF90DF90CF9045
:100FB00008953F924F925F926F927F928F929F928D
:100FC000AF92BF92CF92DF92EF92FF920F931F9357
:100FD000CF93DF9300D000D000D0CDB7DEB710E0C4
:100FE000412C512C20EA622E21EC722E80910F01AF
:100FF000181708F015C381E1189FF0011124E75874
:10100000FD4FC080D180E280F38084809580A680EF
:10101000B78030888091780281112BC080912A039B
:10102000332041F080FF03C043E157E00AC04BE1A9
:1010300057E007C080FF03C043E057E002C04BE029
:1010400057E0C501B4014D835E830E94342F69834C
:101050007A838B839C83C701B6010E94342FDC0105
:10106000CB0108E028E04D815E8169817A810E9490
:10107000051580917802813009F580912A0380FF5F
:1010800003C043EF56E002C04BEF56E0C501B40188
:101090004D835E830E94342F69837A838B839C8384
:1010A000C701B6010E94342FDC01CB0108E028E023
:1010B0004D815E8169817A810E9405158091780257
:1010C000823009F580912A0380FF03C043EE56E089
:1010D00002C04BEE56E0C501B4014D835E830E9411
:1010E000342F69837A838B839C83C701B6010E9466
:1010F000342FDC01CB0108E028E04D815E8169815D
:101100007A810E94051580917802833049F5C501E6
:10111000B401332089F00E94342F69837A838B8352
:101120009C83C701B6010E94342FDC01CB0108E08B
:1011300028E04BED56E010C00E94342F69837A837B
:101140008B839C83C701B6010E94342FDC01CB0145
:1011500008E028E043ED56E069817A810E94051598
:10116000809178028430B1F4C501B4010E94342F1B
:1011700069837A838B839C83C701B6010E94342FD5
:10118000DC01CB0108E028E04BEC56E069817A8174
:101190000E94051580917802853049F5C501B4019A
:1011A000332089F00E94342F69837A838B839C8358
:1011B000C701B6010E94342FDC01CB0108E028E012
:1011C00043EC56E010C00E94342F69837A838B83EE
:1011D0009C83C701B6010E94342FDC01CB0108E0DB
:1011E00028E04BEB56E069817A810E9405158091D9
:1011F0007802863009F580912A0380FF03C04BEA0C
:1012000056E002C043EB56E0C501B4014D835E8356
:101210000E94342F69837A838B839C83C701B60134
:101220000E94342FDC01CB0108E028E04D815E8173
:1012300069817A810E94051580917802873099F43E
:10124000C501B4010E94342F4B015C01C701B601F6
:101250000E94342FDC01CB0108E028E043EA56E08D
:10126000B4010E9405156091030170910401809101
:101270000501909106010E94342F6B017C01609161
:1012800022027091230280912402909125020E94F3
:10129000342FDC01CB0108E028E04BE956E0B60131
:1012A0000E94051580917101813009F475C0E8F143
:1012B000823009F4A8C0833009F0DFC060912602B3
:1012C0007091270280912802909129020E94342F68
:1012D00030912A0208E028E042E855E0832F90E0B0
:1012E0000E94051560912C0270912D0280912E02B2
:1012F00090912F020E94342F3091300228E04AE76B
:1013000055E0832F90E00E94051560917201709165
:10131000730180917401909175010E94342F309176
:101320002B0228E042E755E0A4C0609126027091AC
:10133000270280912802909129020E94342F309137
:101340002A0208E028E04AEC55E0832F90E00E9452
:10135000051560912C0270912D0280912E029091C2
:101360002F020E94342F3091300228E042EC55E0E9
:10137000832F90E00E9405156091720170917301B6
:1013800080917401909175010E94342F30912B024D
:1013900028E04AEB55E06DC060912602709127026B
:1013A00080912802909129020E94342F30912A02C4
:1013B00008E028E042EB55E0832F90E00E940515FD
:1013C00060912C0270912D0280912E0290912F023B
:1013D0000E94342F3091300228E04AEA55E0832FF2
:1013E00090E00E94051560917201709173018091E7
:1013F0007401909175010E94342F30912B0228E0E6
:1014000042EA55E036C06091260270912702809131
:101410002802909129020E94342F30912A0208E07C
:1014200028E04AE955E0832F90E00E94051560917D
:101430002C0270912D0280912E0290912F020E9419
:10144000342F3091300228E042E955E0832F90E0BC
:101450000E94051560917201709173018091740171
:10146000909175010E94342F30912B0228E04AE8B8
:1014700055E0832F90E00E94051580912B038B305F
:1014800009F07DC080912A0380FF05C092E6E92E15
:1014900095E0F92E04C08AE6E82E85E0F82E20E0DB
:1014A00030E040E051E460917201709173018091ED
:1014B0007401909175010E94C32E0E94342F3091C7
:1014C0002B0208E028E0A701832F90E00E94051579
:1014D0002DEC3CEC4CE45EE3609126027091270217
:1014E00080912802909129020E94C22E60932602C8
:1014F0007093270280932802909329022DEC3CECF4
:101500004CE45EE360912C0270912D0280912E02DA
:1015100090912F020E94C22E60932C0270932D0294
:1015200080932E0290932F022DEC3CEC4CE45EE372
:1015300060917201709173018091740190917501B5
:101540000E94C22E609372017093730180937401A4
:101550009093750140920701509208016092090131
:1015600070920A0120E030E040E051EC0E942F2F01
:1015700087FF03C083E080932C030E942B07809198
:101580002903882309F44AC0809123038230C9F0DB
:1015900028F4882341F0813069F040C08330C1F0E5
:1015A0008430E9F03BC080912A0380FD1CC043E9F0
:1015B00056E01EC080912A0380FD15C043E856E026
:1015C00017C080912A0380FD0EC04BE756E010C083
:1015D00080912A0380FD07C043E756E009C080914F
:1015E0002A0380FF03C04BE856E002C04BE656E0FA
:1015F0006091240370912503809126039091270325
:101600004D835E830E94342F3091280308E028E048
:101610004D815E81832F90E00E9405151F5FE6CC0F
:1016200026960FB6F894DEBF0FBECDBFDF91CF91E7
:101630001F910F91FF90EF90DF90CF90BF90AF90F0
:101640009F908F907F906F905F904F903F90089504
:10165000CF92DF92EF92FF920F931F93CF93DF937E
:10166000C2E4D6E0FE0132961491E12CF12C6E0119
:101670002FEFC21AD20AE116D0F4FE01849197012D
:10168000280F311DC901F6016491660F660F660FC0
:1016900070E0880F880F880F08E028E043E656E0E6
:1016A00090E00E940515FFEFEF1AFF0AE4CF2396A2
:1016B00026E0CB34D207B1F6DF91CF911F910F9185
:1016C000FF90EF90DF90CF900895EBE4F6E0659106
:1016D0007591859194910E943B2F60932A02EFE4CB
:1016E000F6E085919591A591B4918093260290930F
:1016F0002702A0932802B0932902E3E5F6E0659162
:101700007591859194910E943B2F60933002E7E59B
:10171000F6E085919591A591B49180932C029093D8
:101720002D02A0932E02B0932F02EBE5F6E0659117
:101730007591859194910E943B2F60932B02EFE568
:10174000F6E085919591A591B49180937201909363
:101750007301A0937401B0937501089581E08093A3
:101760002C0340E050E060E772E440930B0150939B
:101770000C0160930D0170930E0140E050E06CE3AA
:1017800072E440930701509308016093090170933C
:101790000A018093020110921E0210921F02109201
:1017A00020021092210210921A0210921B02109233
:1017B0001C0210921D0280E090E027E0289FF001BB
:1017C000299FF00D1124EF5CFD4FDF01322F1D9298
:1017D0003A95E9F701968930910581F780E090E02C
:1017E00028E0FC0133E0EE0FFF1F3A95E1F7E658E1
:1017F000FE4FDF01322F1D923A95E9F701968331B2
:10180000910579F708950E94B83122E030E040E078
:1018100050E00E94DC31672B682B692B69F00E9435
:10182000B83120E330E040E050E00E94DC31605FFE
:101830007F4F8F4F9F4F0CC00E94B83120E130E0A6
:1018400040E050E00E94DC31685A7F4F8F4F9F4F3D
:101850000E946C2F08950E94B8316DEC7CEC8CE4F2
:101860009EEB0895CF93C0910F010E94B83145E0DF
:10187000C49F90011124265A3F4F032E000C440BA5
:10188000550B0E94DC3124E630E040E050E00E943D
:10189000DC31CA01B9010E946C2F2AE939E949E11A
:1018A0005EE30E94C32ECF9108950E94B83120E3D9
:1018B00030E040E050E00E94DC31685F7F4F8F4FA6
:1018C0009F4F0E946C2F08950E94B83120E430E0B1
:1018D00040E050E00E94DC3160587F4F8F4F9F4FB7
:1018E0000E946C2F08950E94B83120E430E040E05F
:1018F00050E00E94DC3190958095709561957F4F06
:101900008F4F9F4F0E946C2F08952F923F924F92BE
:101910005F926F927F928F929F92AF92BF92CF927F
:10192000DF92EF92FF920F931F93CF93DF93CDB788
:10193000DEB763970FB6F894DEBF0FBECDBF8CE75E
:10194000C82E81E0D82E2AE731E03B8B2A8B9DE719
:10195000292E91E0392E4BE751E05A834983F60155
:10196000E080EE2009F45AC1EB82FE2DF93010F030
:1019700028E02B83612C712C10E0F60180818530EA
:10198000F8F01430E8F4E981FA81608170E0EA89C6
:10199000FB89808190E0F1012081211103C02FEFAC
:1019A0003FEF02C021E030E0629EF001639EF00D47
:1019B000729EF00D112408E028E043E757E01CC0B8
:1019C000E981FA81608170E0EA89FB89808190E099
:1019D000F1012081211103C02FEF3FEF02C021E070
:1019E00030E0629EF001639EF00D729EF00D1124B6
:1019F00008E028E04BE657E08E0F9F1F0E94051578
:101A0000E981FA81E080EA89FB899081F101808196
:101A1000811102C08FEF01C081E0869D900D1124DD
:101A20009C8300E04E2C512C292F30E0388B2F87DF
:101A300080910F01081708F0B8C0402F50E05E8376
:101A40004D8381E1849FF001859FF00D1124E758BB
:101A5000FD4F80809180A280B380648175818681F2
:101A600097810E943B2FF62EE61608F49CC0862F25
:101A700090E00796841595050CF495C0C501B40156
:101A80000E943B2F9C81961708F48DC0862F90E012
:101A90000796EF85F8898E179F070CF484C0E091B4
:101AA000770287E08E9FF0011124EF5CFD4F91E0FB
:101AB0009083698B0E942B070E942B07A0907702CE
:101AC000E7E0EA9DC00111249C012F5C3D4F5901C4
:101AD0006989F9016183F2820E94AE1AF50163837C
:101AE000748385839683809177028F5F8A3008F4B0
:101AF000C9C0109277028091760190917701A091F0
:101B00007801B09179014996A11DB11D80937601AC
:101B100090937701A0937801B09379010E94B83136
:101B200022E030E040E050E00E94DC31FF24F394FA
:101B3000672B682B692B09F0A2C0F12C0E94730C53
:101B40004B015C010E94550C6F83788789879A87C7
:101B50000E94320C6B877C878D879E870E942B0C9E
:101B600041E12D813E81429FF001439FF00D112400
:101B7000E758FD4F80829182A282B3822F813885FF
:101B800049855A8524833583468357832B853C8535
:101B90004D855E85208731874287538764877587A7
:101BA00086879787F08A0F5F43CF1F5F38E0630E09
:101BB000711C4B811413E1CE0E94AE1AEA89FB8995
:101BC0000481158126813781DC01CB01801B910BBB
:101BD000A20BB30B4597A105B10500F1F601808179
:101BE0008F5F8083893090F0EA89FB899081F101D1
:101BF0002081211102C028EF01C028E0920FEA895C
:101C0000FB899083813110F0F60110820E94AE1A98
:101C1000EA89FB896483758386839783F8E0CF0E16
:101C2000D11C2A893B89285F3F4F3B8B2A8B38E0A8
:101C3000230E311C49815A81485F5F4F5A83498383
:101C40005CE1C51652E0D50609F089CE63960FB661
:101C5000F894DEBF0FBECDBFDF91CF911F910F91E2
:101C6000FF90EF90DF90CF90BF90AF909F908F90BC
:101C70007F906F905F904F903F902F9008950E94BB
:101C8000640C5ECF8093770236CF2F923F924F92B3
:101C90005F926F927F928F929F92AF92BF92CF92FC
:101CA000DF92EF92FF921F93CF93DF9300D000D08B
:101CB000CDB7DEB789E7282E82E0382E92E0492E94
:101CC000512C612C712C0E94B831A30192010E9409
:101CD000DC3111E0672B682B692B21F410E00E94A6
:101CE000730C02C00E94640C6B017C010E94550CB5
:101CF0004B015C010E94320C69837A838B839C8345
:101D00000E942B0CF101C082D182E282F382848294
:101D10009582A682B78229813A814B815C81208796
:101D20003187428753876487758786879787108BAB
:101D3000F1E12F0E311C22E1221623E0320619F6C2
:101D40000F900F900F900F90DF91CF911F91FF9008
:101D5000EF90DF90CF90BF90AF909F908F907F904B
:101D60006F905F904F903F902F900895CF92DF92A9
:101D7000EF92FF920F931F93CF93DF930E9456141D
:101D80000E94F01481E08093CC07C1E0D0E0D093B2
:101D9000C707C093C607D093C907C093C8078EE58D
:101DA00091E00E942B1606E410E01093C707009301
:101DB000C607D093C907C093C80760917601709198
:101DC000770180917801909179014AE00E943D1657
:101DD000D093C707C093C607CEE0D0E0D093C90721
:101DE000C093C80789E591E00E942B161093C7079E
:101DF0000093C607D093C907C093C807C090760167
:101E0000D0907701E0907801F090790160915007CF
:101E10007091510780915207909153074AE06C15D9
:101E20007D058E059F0510F4C701B6010E943D1681
:101E300008E028E04BE757E06BE170E081E090E0DC
:101E40000E9405158CE090E09093C7078093C60729
:101E50008BE190E09093C9078093C807C09001017F
:101E60000C2C000CDD08EE08FF08F7FE14C0E09112
:101E7000B207F091B3070190F081E02D6DE282EBA3
:101E800097E0099566277727CB016C197D098E09A4
:101E90009F094AE003C04AE0C701B6010E943D160F
:101EA00082E08093CC078CE090E09093C70780930A
:101EB000C6078EE290E09093C9078093C80786E634
:101EC00091E00E942B166091000170E080E090E0AC
:101ED0004AE00E943D160E94701440E054E060E524
:101EE00073E084E597E00E94E01040E054E060E594
:101EF00073E084E597E00E94E0100E94DC1783FF06
:101F00003BC0809171008D7F8093710010924D03D2
:101F100084EA97E090934C0380934B0390934A0399
:101F20008093490388EE93E09093A5078093A407DC
:101F300088EC90E09093A7078093A60780E090E854
:101F40009093A9078093A8070E94A81664EF71E0F8
:101F500080E090E00E943B1A0E94450E81E0809351
:101F60002C0310922903DF91CF911F910F91FF90C5
:101F7000EF90DF90CF9008950E94DC1782FFB5CFDD
:101F8000C0CF40913F035091400320913D033091D9
:101F90003E0342175307B4F49091E8009570E1F3C3
:101FA0009091E80092FD19C08093F10080913F0369
:101FB0009091400301968F739927892B19F48EEF26
:101FC0008093E80080913F039091400301969093A5
:101FD000400380933F0381E0089580E00895CF920D
:101FE000DF92EF92FF920F931F93CF93DF931F9295
:101FF000CDB7DEB7182F062FE42E862F880F8E5F01
:1020000099830E94C10F83E00E94C10FF12EC12E5F
:102010009981D92E8C2D8F19801798F4F601E7FE3F
:1020200002C0849101C080810E94C10F182F80E0FE
:102030000E94C10F8123FFEFCF1ADF0A8111EACF7F
:1020400001C081E00F90DF91CF911F910F91FF9020
:10205000EF90DF90CF900895DF92EF92FF920F9371
:102060001F93CF93DF93D82E8A017B01E40EF51ED8
:10207000EB01CE15DF0571F0D7FE03C0FE018491A0
:1020800001C088810E94C10F21968111F2CF8FEF8C
:102090009FEF01C0C801DF91CF911F910F91FF9079
:1020A000EF90DF900895615030F02091F100FC0135
:1020B00020830196F8CF289884E680934E030895F4
:1020C000CF92DF92EF92FF920F931F93CF93DF9304
:1020D0006C017A018B01C0E0D0E0CE15DF0589F0FC
:1020E000D8016D918D01D601ED91FC910190F081A7
:1020F000E02DC6010995892B11F47E0102C02196BD
:10210000ECCFC701DF91CF911F910F91FF90EF901E
:10211000DF90CF900895CF93DF931F92CDB7DEB7B6
:102120006983DC01ED91FC910280F381E02D41E0B7
:1021300050E0BE016F5F7F4F09950F90DF91CF9107
:10214000089583E08093E9008091F200882319F0DC
:102150008AE38093E80008950E9465310F931F93EE
:10216000CF93DF931F92CDB7DEB782E0898342E43D
:1021700050E063E877E080E80E942C100E94581934
:10218000DC0112960D911C9113970115110569F050
:10219000D801ED91FC910280F381E02DBE016F5FCB
:1021A0007F4FC801099597FF07C089810F90DF9184
:1021B000CF911F910F910895F80100851185E5CF0A
:1021C0008F929F92AF92BF92CF92DF92EF92FF9247
:1021D0000F931F93CF93DF935C016B018A01809172
:1021E0001B01882309F45EC080914F03882309F402
:1021F00059C080916F0180FF05C08091E00082602E
:102200008093E000E8018AEFF82E93E0E92E2FE3B7
:10221000822E3AE3932E209709F43DC08FB7F894AD
:10222000E092E9009091E80095FF06C09091F200DD
:10223000282D291B922F01C090E08FBF91110AC059
:10224000FA94FF2079F161E070E080E090E00E9474
:102250003B1AE1CF292F30E0C217D3070CF49C2F93
:102260008FB7F894E092E9002091E80025FF11C0B3
:10227000292F30E0C21BD30BF601915020F0419181
:102280004093F100FACFC20ED31E9091E80095FF63
:1022900013C08FBFC0CF5D9884E6809341031016B2
:1022A000110644F081E090E0F5019383828380E0A1
:1022B00090E005C0C80103C09092E800EACFDF912A
:1022C000CF911F910F91FF90EF90DF90CF90BF9033
:1022D000AF909F908F900895CF93DF931F92CDB7CB
:1022E000DEB7FC018485958597FD05C02FEF3FEF94
:1022F000358724870BC0CE0101960E947E16019778
:1023000019F4898190E002C08FEF9FEF0F90DF9169
:10231000CF9108951F920F920FB60F9211248F93B1
:102320009F938091E1009091E100937F9093E10071
:1023300083FF0FC01092E90091E09093EB001092A0
:10234000EC0092E39093ED0010924F0398E090938D
:10235000F00082FF20C093E09093E9009091F2009A
:10236000992319F09AE39093E800909141039923FF
:1023700039F090914103915090934103992389F151
:1023800090914E03992339F090914E039150909380
:102390004E03992341F184FF10C08091E2008E7EAC
:1023A00081608093E2008091E1008F7E8093E10064
:1023B00080916F018E7E806111C080FF16C0809178
:1023C000E2008E7E80618093E2008091E1008E7E4B
:1023D0008093E10080916F018E7E816080936F0118
:1023E00004C05D9ACDCF289AD6CF9F918F910F9040
:1023F0000FBE0F901F9018951F920F920FB60F925D
:102400001124CF92DF92EF92FF920F931F932F939D
:102410003F934F935F936F937F938F939F93AF936C
:10242000BF93EF93FF93CF93DF93CDB7DEB76C9756
:10243000DEBFCDBF1092E9008091E80083FFFAC1B2
:1024400068E0CE0145960E94531082EF8093E80029
:102450008D8987FF05C09091E80090FFFCCF03C0F5
:102460009EEF9093E800982F907609F0C6C09E8961
:102470002F89188D91110CC0803829F4809170013A
:102480008093F10002C01092F1001092F10047C158
:10249000422F50E0512B913051F4811140C1413015
:1024A000510509F03CC1809170018D7F0BC09330C4
:1024B00061F4811134C14130510509F030C180917E
:1024C00070018260809370012AC1953041F480913F
:1024D000E80080FFFCCF20682093E30020C1963005
:1024E00009F05FC0EB8CFC8C1092E9001092400365
:1024F00010923F03123091F510923E0310923D036B
:102500000E94AE1099E0BE016F5F7F4FDB01E92FA3
:102510001D92EA95E9F799831A8391E09E8390EAE8
:1025200098879AEF998720913F0330914003275F66
:102530003F4F3C832B838D831092E9001092400320
:1025400010923F03F0923E03E0923D0349E050E0D9
:1025500080E00E942C100E94AE10E1C0F0923E0379
:10256000E0923D030E945819DC011296ED90FC9018
:102570001397E114F10409F4C0C0D701ED91FC9167
:102580000480F581E02DBE016B5E7F4FC701099588
:10259000009719F00CF0C3C0C6C0F701E084F184C5
:1025A000E8CF973009F4BFC0983021F481E08093E0
:1025B000F100B5C0993009F0B2C0837009F0B3C022
:1025C000E1E2F1E081E021E036E39081992361F0DE
:1025D0008093E9002093EB0091919093EC0030936D
:1025E000ED008F5F873089F78EE78093EA001092C5
:1025F000EA008F8980934F0392C08B8D9C8D10923F
:10260000E9001092400310923F0390933E038093A1
:102610003D03898D811156C08E899D89913A59F467
:10262000813209F080C047E050E064E171E080E071
:102630000E942C1074C0913209F075C0833289F465
:10264000888D90E0982F88272F89822BA0E0B0E01A
:102650008093100190931101A0931201B093130184
:102660005EC0803269F48091E80082FFFCCF67E0B1
:1026700084E191E00E9453108BEF8093E80006C044
:10268000823209F04CC08F8980931B0180916E01CA
:10269000882319F0EEEFFAE002C0E0E0F8E0809164
:1026A000140190911501A0911601B0911701803B82
:1026B0009440A105B10509F088C080911B0180FFFD
:1026C000A0C083C00E945819DC0112960D911C9184
:1026D00013970115110539F1D801ED91FC91019085
:1026E000F081E02DBE016B5E7F4FC801099581111D
:1026F00016C0F80100851185ECCF1130C1F0133000
:1027000091F48F89882309F455C08230E9F440E8B8
:1027100060E185ED97E00E94EF0F882321F08EEFB6
:102720008093E80087C081E28093EB0083C08B8DAB
:102730009C8D089711F410933C0380913C03811108
:1027400036C066EE77E038C0813029F440E86BE0AF
:1027500089EC97E0E0CF833031F70E945819DC0113
:102760001296ED90FC9013978E010F5F1F4F68013A
:10277000E114F10479F0D701ED91FC910680F78125
:10278000E02DB801C7010995080F111DF701E0847C
:10279000F184EECFD8011C92F60101900020E9F7F8
:1027A0003197BF016C197D0940E0C601B4CF68EFD5
:1027B00077E002C065EC77E06115710509F4B3CFED
:1027C000FB01449150E080E833CF0FB6F894A89510
:1027D00080916000886180936000109260000FBE5D
:1027E000A895EE3F2AE0F20739F08091FE0A909119
:1027F000FF0A9183808393CF1092FF0A1092FE0A02
:102800008ECFEE3F8AE0F80731F08081918190937E
:10281000FF0A8093FE0A87E797E7918380839BE016
:1028200088E10FB6F894A895809360000FBE90934E
:10283000600075CF6C960FB6F894DEBF0FBECDBFAB
:10284000DF91CF91FF91EF91BF91AF919F918F91C8
:102850007F916F915F914F913F912F911F910F91B8
:10286000FF90EF90DF90CF900F900FBE0F901F90D2
:10287000189580914203089580914D03E0914B0398
:10288000F0914C03882349F0CF01029690934C03BA
:1028900080934B03859194910895CF010296909374
:1028A0004C0380934B038081918108950F931F9374
:1028B000CF93DF9300E517E0C0E1D2E0CE010E94A4
:1028C000C631F80181938F012196C431F2E0DF0710
:1028D000A9F780E597E0DF91CF911F910F910895BF
:1028E000809150038EBDE1E5F3E081910DB407FEC8
:1028F000FDCF8EBD87E0E035F807B9F70DB407FED0
:10290000FDCF0895CF92DF92EF92FF920F931F9326
:10291000CF93DF93809164008E7F8093640087EC77
:1029200080937C0080E280937B0062E070E080E036
:1029300090E00E943B1A80917A00806480937A0034
:1029400080917A0086FDFCCFC0917800D09179000B
:10295000C095D0958EE580937C0062E070E080E0C9
:1029600090E00E943B1A80917A00806480937A0004
:1029700080917A0086FDFCCF00917800109179005B
:102980000E94161A9B01AC012095309540955095F8
:10299000009510950C9FD0010D9FB00D1C9FB00DA0
:1029A00011240E94FB316B017C010E94161A6C0DF0
:1029B0007D1D8E1D9F1D611571058105910511F00D
:1029C0000E94BD3180916400816080936400DF913A
:1029D000CF911F910F91FF90EF90DF90CF900895CE
:1029E00020E080E593E0B22FB111BFEFFC0100249D
:1029F000B193B193B193B1930394D1F7E2EBF7E0C4
:102A0000178A168A158A148A08952F923F924F9238
:102A10005F926F927F928F929F92AF92BF92CF926E
:102A2000DF92EF92FF920F931F93CF93DF93CDB777
:102A3000DEB728970FB6F894DEBF0FBECDBF5A01A0
:102A4000822E912C9C01280D391D37FDC4C0803881
:102A500091050CF0C0C09B01200F311D37FDBBC09C
:102A6000603471050CF0B7C0AB0177FF04C0442798
:102A70005527461B570B477055279B0177FF02C010
:102A8000295F3F4FE3E035952795EA95E1F777FF1A
:102A900008C02150310968E070E0DB01A41BB50BD0
:102AA000AD01602F66956695669570E0077011F030
:102AB0006F5F7F4FDB01A20FB31FBA83A983390178
:102AC0007694762C662477946794680E791EE12CB0
:102AD000F12C00E010E02301B0E84B0E511C68E03F
:102AE00070E0DB01A41BB50BBC83AB8369817A81E9
:102AF0002617370709F46FC02830310509F46BC079
:102B00002F3FBFEF3B070CF45BC0B201600F711F9A
:102B1000DB01A05BBC4FBE83AD83D801A60DB71D02
:102B2000A05BBC4F6C0160E070E0681579050CF0AB
:102B300047C0E0E8CE16D10409F442C0D7FC34C047
:102B40002F3FFFEF3F0709F442C0FB01EE0DFF1DD1
:102B5000EA0DFB1DE491042E01C0EE0F0A94EAF782
:102B60003C90E329EC9341155105F1F027303105F4
:102B7000D9F0FB01EE0DFF1DEA0DFB1DE4912E2E99
:102B8000312CF1010B8002C0F595E7950A94E2F72C
:102B9000F887EF83ED81FE813080EF81F885E329AE
:102BA0001F01ED81FE8120826F5F7F4FED81FE81ED
:102BB0003196FE83ED83FFEFCF1ADF0A1196B5CF72
:102BC0002F5F3F4F00581F4FE80CF91C8FCF411566
:102BD000510579F6E9CF28960FB6F894DEBF0FBEFF
:102BE000CDBFDF91CF911F910F91FF90EF90DF90BC
:102BF000CF90BF90AF909F908F907F906F905F909D
:102C00004F903F902F90089570E06115710511F17C
:102C10006138710514F060E870E0AC014770552729
:102C200021E001C0220F4A95EAF797FD0796FC01C3
:102C300083E0F595E7958A95E1F7F695FE2FEE2767
:102C4000F795E795E05BFC4F615020F08081822B87
:102C50008193FACF0895009769F0FC01019000205C
:102C6000E9F73197AF01481B590BBC0182EB97E0A4
:102C70000C94601080E090E008958F929F92AF9244
:102C8000BF920F931F93CF93DF93CDB7DEB7A1977A
:102C90000FB6F894DEBF0FBECDBF19A2423008F4C4
:102CA0004AE08E010F5D1F4F842E912CA12CB12C78
:102CB000A50194010E940E32E62FB901CA0101500C
:102CC0001109EA3014F4E05D01C0E95CD801EC932D
:102CD000232B242B252B61F7C8010E942B16A196CC
:102CE0000FB6F894DEBF0FBECDBFDF91CF911F911D
:102CF0000F91BF90AF909F908F900895FC018091AD
:102D00004F03811103C08FEF9FEF08959FB7F89491
:102D100082E08093E9002091F20030E01216130661
:102D200014F421E030E02115310559F0289884E6AB
:102D300080934E038091F10080838091F20088237C
:102D400019F09FBFC90108958BE68093E800F9CF81
:102D5000CF92DF92EF92FF920F931F93CF93DF9367
:102D60000E943C14811520E8920761F48091710063
:102D70008D7F809371001092910046984798109231
:102D8000D00789C021E02093D007813020E8920746
:102D900051F48091490390914A0390934C0380939E
:102DA0004B030E943C14469897FD05C02091CF0725
:102DB000222309F46BC02091CE07211167C021E0C6
:102DC0002093D107EC01DF77209769F481E08093AD
:102DD000D20746983FE9C32E3FE0D32EE12CF12CD9
:102DE000CAEFD0E014C08E0120E030E060E472E46D
:102DF0008FE090E0A90198010E94DC3169017A011D
:102E000081E0C81AD108E108F1081092D207E091D8
:102E1000D707F091D8070995811103C081E080930D
:102E2000D2078091D1078823A1F18091D207811127
:102E300030C0479A0E943C14009771F09C01DE015B
:102E40000E943032DC01CB0129E0B595A79597951A
:102E500087952A95D1F703C08FEF9FEFDC01109281
:102E600090002AE020939100D0929900C09298009F
:102E70008093D3079093D407A093D507B093D60738
:102E80008091710082608093710005C01092D1071B
:102E900099CF4798CFCFDF91CF911F910F91FF909E
:102EA000EF90DF90CF9008951F920F920FB60F9280
:102EB00011242F933F934F935F936F937F938F933F
:102EC0009F93AF93BF93EF93FF938091D30790911C
:102ED000D407A091D507B091D607892B8A2B8B2BCD
:102EE00081F18091D20781110BC098B180E48927CC
:102EF00088B98091D107882319F088B1805888B9A2
:102F00008091D3079091D407A091D507B091D607AF
:102F1000181619061A061B06B4F48091D30790916F
:102F2000D407A091D507B091D6070197A109B1099F
:102F30008093D3079093D407A093D507B093D60777
:102F400002C00E94A816FF91EF91BF91AF919F918F
:102F50008F917F916F915F914F913F912F910F9042
:102F60000FBE0F901F901895EF92FF920F931F9333
:102F7000DC01E1E7F0E090819D7F908310924D03AA
:102F8000E4EAF7E0F0934C03E0934B03F0934A0339
:102F9000E0934903B183A0837383628355834483A1
:102FA0003783268311870087F386E2861F910F916E
:102FB000FF90EF900C94A8168FB12CB193B130E034
:102FC0002095309520743327A90123E05595479526
:102FD0002A95E1F7292F30E020953095207133278D
:102FE0003595279535952795242B8095807F822BC5
:102FF000089583B7817F83BF83B7816083BF88953E
:1030000083B78E7F83BF0895E0914703F091480313
:10301000908180914603892B8083E0914403F09155
:103020004503908180914303809589238083E091BB
:103030004703F0914803908180914603809589234E
:1030400080830895E0914403F0914503908180913D
:103050004303892B8083E0914703F09148039081DB
:103060008091460380958923808308958EBD00005A
:103070000DB407FEFDCF8EB508952F923F924F926B
:103080005F926F927F928F929F92AF92BF92CF92F8
:10309000DF92EF92FF920F931F93CF93DF9300D0B5
:1030A00000D000D0CDB7DEB7DC016A30A9F45A9663
:1030B0002C915A9756968D919C91579708E0209F96
:1030C000800D911D112457969C938E93569755967B
:1030D0001C921E925497D1C06D3009F4CEC05A96FE
:1030E000BC905A9759962C90599758963C9058975F
:1030F00056962D913C9157973C832B8354968D91F6
:103100009C91559780389105C4F05A962C915A9706
:10311000422F50E054968D919C91559736E0239F15
:10312000800D911D112455969C938E9354975B9618
:103130002C915B9721118EC0A0C00B811C810034A3
:1031400011051CF79C0115E0B19E200D311D1124C5
:1031500012161306D4F68B2C912C2B813C8148E05F
:10316000B49E200D311D11241216130674F6E5E0ED
:103170006E9F2001112460E070E06530710539F028
:10318000FB01E40DF51DED57F74FA49001C0A12CF4
:10319000EB80FC8008E0702EA0FC02C0622C01C015
:1031A000632C611009C0231007C0A6947A94E80C20
:1031B000F91C7110F1CF45C09C01422F481B4B15E3
:1031C000A0F7A701E42FF42FFE19FB15B8F520385E
:1031D000310588F54034510570F5E695E695E6959C
:1031E000CE2ED12C8A01077011271A830983F6018C
:1031F000F695FE2FEE27F795E795E20FF31F8F0167
:10320000005B1C4F1E830D83E1E0F0E0098002C0EB
:10321000EE0FFF1F0A94E2F7FA83E983662029F094
:10322000F801D080C980CD2805C0CE2EC094F80109
:10323000D080CD20C0824F5F5F4FC4CF2F5F3F4F04
:10324000BCCF6F5F7F4F880D991D6630710509F007
:1032500094CF5BCF6AEF64039001659F300D11241A
:1032600020583F4F2817390744F4CD01ED91FC91C8
:103270000190F081E02D6AE0099581E090E02696CA
:103280000FB6F894DEBF0FBECDBFDF91CF911F9177
:103290000F91FF90EF90DF90CF90BF90AF909F90F5
:1032A0008F907F906F905F904F903F902F900895F8
:1032B0008091E60781110DC082E08093E20784E0EF
:1032C0008093E3071092E5071092E40781E0809372
:1032D000E60782EE97E00895362F90E0FC01EC5966
:1032E000F74F4491FC01EB5BF74F2491FC01EA5D41
:1032F000F74F8491882309F451C04423E1F150E051
:10330000FA013197EF30F105B0F5E15AFF4F0C9417
:10331000BC2E909180009F7707C0909180009F7D88
:1033200003C090918000977F9093800024C094B553
:103330009F7702C094B59F7D94BD1DC09091900071
:103340009F7707C0909190009F7D03C0909190005F
:10335000977F909390000FC09091C0009F7703C01B
:103360009091C0009F7D9093C00005C09091C200D5
:10337000977F9093C200E82FF0E0EE0FFF1FE85E0A
:10338000F74FA591B4918FB7F894EC91311103C028
:1033900020952E2301C02E2B2C938FBF0895CF9301
:1033A000DF9390E0FC01EB5BF74F2491FC01EA5DB9
:1033B000F74F8491882361F190E0880F991FFC01F9
:1033C000E65FF74FC591D491FC01E85EF74FA591F8
:1033D000B491611109C09FB7F89488812095822328
:1033E0008883EC912E230BC0623061F49FB7F89470
:1033F0003881822F809583238883EC912E2B2C9308
:103400009FBF06C08FB7F894E8812E2B28838FBF0B
:10341000DF91CF9108958230910538F0880F991F80
:10342000880F991F05970197F1F708953FB7F89412
:103430008091DE079091DF07A091E007B091E1074E
:1034400026B5A89B05C02F3F19F00196A11DB11DFF
:103450003FBFBA2FA92F982F8827820F911DA11D3A
:10346000B11DBC01CD0142E0660F771F881F991F77
:103470004A95D1F708958F929F92AF92BF92CF92C3
:10348000DF92EF92FF926B017C010E94161A4B01B2
:103490005C01C114D104E104F104F1F00E94161A98
:1034A000DC01CB0188199909AA09BB09883E934020
:1034B000A105B10570F321E0C21AD108E108F108B5
:1034C00088EE880E83E0981EA11CB11CC114D104A3
:1034D000E104F10419F7DDCFFF90EF90DF90CF907A
:1034E000BF90AF909F908F9008950F931F93CF93AD
:1034F000DF931F92CDB7DEB7182F062F61E089E06A
:1035000049830E946C1968EC70E080E090E00E94B2
:103510003B1A60E0802F0E946C1982E090E00E94CC
:10352000C6314981481729F0642F82E090E00E945B
:10353000CE3164EF71E080E090E00E943B1A61E0E0
:10354000802F0E946C190E94DC1781238117D9F308
:103550000F90DF91CF911F910F9108952FB7F8949D
:103560006091DA077091DB078091DC079091DD07AD
:103570002FBF08951F920F920FB60F9211242F9311
:103580003F938F939F93AF93BF938091DA0790916E
:10359000DB07A091DC07B091DD073091D90723E06C
:1035A000230F2D3720F40196A11DB11D05C026E87B
:1035B000230F0296A11DB11D2093D9078093DA072E
:1035C0009093DB07A093DC07B093DD078091DE07C3
:1035D0009091DF07A091E007B091E1070196A11D4E
:1035E000B11D8093DE079093DF07A093E007B093AF
:1035F000E107BF91AF919F918F913F912F910F90D4
:103600000FBE0F901F901895CF93DF93CDB7DEB705
:103610006F970FB6F894DEBF0FBECDBF789484B518
:10362000826084BD84B5816084BD85B5826085BDBE
:1036300085B5816085BD80916E00816080936E004C
:10364000109281008091810082608093810080913E
:1036500081008160809381008091800081608093EF
:103660008000809191008260809391008091910010
:1036700081608093910080919000816080939000A0
:103680008091C10084608093C1008091C1008260FC
:103690008093C1008091C10081608093C1008091BE
:1036A000C30081608093C3008091C00082608093DA
:1036B000C0008091C20081608093C20080917A0036
:1036C000846080937A0080917A00826080937A008F
:1036D00080917A00816080937A0080917A0080687E
:1036E00080937A0010924F031092700110926F0134
:1036F0008091D70081608093D70080EA8093D800C2
:1037000089B5806189BD89B5826089BD09B400FE33
:10371000FDCF61E070E080E090E00E943B1A809174
:10372000D8008F7C80618093D8008091E000807FFA
:103730008093E0008091E1008E7E8093E1008DE037
:103740008093E200559A209AEEEFFFE785919491DD
:103750008B3F9C4D19F481E080936E018FEF9FEFBA
:1037600090936107809360071FB7F89480912D03B1
:10377000811127C0E7E3F8E08491E6E5F8E0949151
:10378000E82FF0E0EE0FFF1FE65FF74FA591B49131
:10379000EC91E92321F461E081E10E946C1961E080
:1037A00081E10E94CF198CB580618CBD8CB580649D
:1037B0008CBD61E08FE00E94CF1961E080E10E9442
:1037C000CF1980912D038F5F80932D031FBF03E4DA
:1037D00011E0F80184910E5F1F4F319664918823A8
:1037E00019F00E94CF19F5CF61E086E00E946C19B4
:1037F00061E070E080E090E00E943B1A60E086E0CB
:103800000E946C196AE070E080E090E00E943B1A30
:1038100061E086E00E946C19E2E3F8E0E491F0E0F8
:10382000EE0FFF1FE85EF74F859194919093480348
:1038300080934703E1E5F8E0E491E0934603EAE290
:10384000F8E0E491F0E0EE0FFF1FE85EF74F85919E
:1038500094919093450380934403E9E4F8E0E49164
:10386000E09343038CB58C7F8CBD8DB581608DBD9D
:103870000E94041896E3E92E91E0F92E1DE01E0D3A
:10388000F70184910E943618FFEFEF1AFF0A1E110C
:10389000F7CF0E94221880916400816080936400B9
:1038A00080916400826080936400809164008068ED
:1038B00080936400809164008064809364008091B0
:1038C0006500816080936500A12C14E0B12E80E03A
:1038D0000E94361821E0A21AB108C9F70E94DC172D
:1038E00087FF4AC00E94041885EA0E9436180E9489
:1038F000221860E08AE00E946C1960E08BE00E9470
:103900006C1960E089E00E946C190E94DC1784FD4C
:1039100003C00E94F917F9CF61E08AE00E946C1998
:1039200061E08BE00E946C1961E089E00E946C19F3
:103930000E94041884EA0E9436180E9422181CC0B3
:1039400060E089E00E946C190E94DC17847884385A
:1039500021F44FEF6BE00E94751A0E94DC1784710E
:10396000843121F440E06AE00E94751A68EC70E04E
:1039700080E090E00E943B1A0E94DC1782FDE0CFBD
:1039800061E089E00E946C1961E085E00E94CF1936
:1039900061E082E00E94CF1981E0809342030E949F
:1039A000F0140E94821480E18093BB070E94AE1A3B
:1039B00060933703709338038093390390933A03ED
:1039C0000E94AE1A609332037093330380933403E2
:1039D000909335030E94650B20E030E011E060E831
:1039E00070E0422F46954695469580E8489FA00195
:1039F0001124C90187709927A12F01C0AA0F8A95A8
:103A0000EAF780E090E0FC01B3E0F595E795BA9520
:103A1000E1F7EA0DFB1DEE59FE4FF4917C01B7E092
:103A2000EB22FF246B0102C0D594C794EA94E2F71D
:103A3000EF2FF0E0EC21FD21EF2B41F0FC01E40F32
:103A4000F51FE05BFC4FB081BA2BB0830196803844
:103A50009105C9F62F5F3F4F40E1A40EB11C203401
:103A6000310509F0BECF0E94701468E873E180E070
:103A700090E00E943B1A0E94561468E873E180E0CF
:103A800090E00E943B1A0E94AE1A2091C4072223A4
:103A900091F02091BC07A62FA21BA093C5072091EF
:103AA000B9073091BA072F5F3F4F3093BA07209381
:103AB000B9071092C4070091C0071091C107209167
:103AC000C2073091C307601771078207930748F454
:103AD000061B023010F40C941B2E0E94F9170C9454
:103AE0001B2E2091BB076B017C01C20ED11CE11C77
:103AF000F11CC092C007D092C107E092C207F092B9
:103B0000C3076093BC077093BD078093BE07909373
:103B1000BF0781E08093C4070E94F01480912C03BA
:103B2000813069F010F40C94792B823011F40C94EC
:103B30005B2A833011F40C947C2B0C94112E60E8DA
:103B40008FE390E00E94041660913B036623F9F036
:103B500080912B038B30D8F480912A0380FD04C020
:103B6000643611F460E80FC0643688F470E080E0D9
:103B700090E00E946C2F2AE037ED43EA5FE30E9459
:103B8000D1300E943B2F80E090E00E9404160E94FA
:103B9000280B0E94D90780912B038B3008F43FC07B
:103BA0000E9463070E94850C809007019090080195
:103BB000A0900901B0900A0120E030E040E051E41B
:103BC000C501B4010E94C32E0E943B2FC62E20E0E7
:103BD00030E040E751E4C501B4010E94C32E0E94C9
:103BE0003B2FD62E80900B0190900C01A0900D01E0
:103BF000B0900E01C501B4010E943B2F362E20E08B
:103C000030E040EE50E4C501B4010E94C32E0E9492
:103C10003B2F262E809129038111D2C218C3109107
:103C200036031111DFC080910201C0900701D090CE
:103C30000801E0900901F0900A01882309F468C0A6
:103C400060910B0170910C0180910D0190910E011A
:103C50000E94342F4B015C01C701B6010E94342F32
:103C600008E028E04AE356E0C4010E94051520E080
:103C700030E0A90160911E0270911F028091200224
:103C8000909121020E942F2F81110BC020E030E083
:103C900040E051E4C701B6010E94C32E0E94342FB8
:103CA00015C080912A03813021F128F0823091F0F3
:103CB0008330F9F097C020E030E040E051E4C701E4
:103CC000B6010E94C32E0E94342F08E028E042E390
:103CD00056E085C020E030E040E051E4C701B60185
:103CE0000E94C32E0E94342F08E028E042E256E0F2
:103CF00076C020E030E040E051E4C701B6010E9408
:103D0000C32E0E94342F08E028E04AE256E067C044
:103D100060910B0170910C0180910D0190910E0149
:103D20000E94342F4B015C01C701B6010E94342F61
:103D300008E028E04AE156E0C4010E94051520E0B1
:103D400030E0A90160911E0270911F028091200253
:103D5000909121020E942F2F81110BC020E030E0B2
:103D600040E051E4C701B6010E94C32E0E94342FE7
:103D700015C080912A03813021F128F0823091F022
:103D80008330F9F02FC020E030E040E051E4C7017B
:103D9000B6010E94C32E0E94342F08E028E042E1C1
:103DA00056E01DC020E030E040E051E4C701B6011C
:103DB0000E94C32E0E94342F08E028E042E056E023
:103DC0000EC020E030E040E051E4C701B6010E949F
:103DD000C32E0E94342F08E028E04AE056E0C401D8
:103DE0000E9405151150123008F0ABC080910201FD
:103DF000C0900701D0900801E0900901F0900A01FD
:103E0000882309F44EC060910B0170910C018091E0
:103E10000D0190910E010E94342F4B015C01C701EE
:103E2000B6010E94342F08E028E04AE356E0C401BE
:103E30000E94051580912A03813021F128F08230FB
:103E400091F08330F9F07DC020E030E040E051E4B3
:103E5000C701B6010E94C32E0E94342F08E028E05B
:103E60004AEF55E06BC020E030E040E051E4C7018C
:103E7000B6010E94C32E0E94342F08E028E04AEECB
:103E800055E05CC020E030E040E051E4C701B601FD
:103E90000E94C32E0E94342F08E028E042EF55E034
:103EA0004DC060910B0170910C0180910D019091BA
:103EB0000E010E94342F4B015C01C701B6010E9424
:103EC000342F08E028E04AE156E0C4010E940515BD
:103ED00080912A03813021F128F0823091F08330E3
:103EE000F9F02FC020E030E040E051E4C701B60116
:103EF0000E94C32E0E94342F08E028E042EE55E0D5
:103F00001DC020E030E040E051E4C701B6010E944E
:103F1000C32E0E94342F08E028E042ED55E00EC089
:103F200020E030E040E051E4C701B6010E94C32E1A
:103F30000E94342F08E028E04AED55E0C4010E94B9
:103F40000515D12C31E1A32E47E0B42ECC24C39427
:103F500052E0952E66E0862E80910F01D81608F06B
:103F60001FCEAD9C8001112407581D4FD801149617
:103F70006D917D918D919C9117970E943B2F762E8C
:103F800060910B0170910C0180910D0190910E01D7
:103F90000E943B2F662E609107017091080180916D
:103FA000090190910A010E943B2F562EE62CF12C1C
:103FB000F80160817181828193810E943B2F862F5D
:103FC00090E0E816F90694F497012A5F3F4F28170E
:103FD000390764F0252D30E0472D50E024173507D0
:103FE0002CF4225F3F4F24173507DCF49C012A5F35
:103FF0003F4F2E153F050CF4E1C08E159F050CF0C8
:10400000DDC0672D70E0852D90E09B012A5F3F4F5A
:10401000281739070CF4D2C00796861797070CF4B7
:10402000CDC080912B03883011F480922B030E9425
:104030002B070E942B070E942B070E942B07F09052
:104040007702BF9C800111240F5C1D4FD801CC92D8
:1040500011966C92119784E0850D12968C930E94B4
:10406000AE1AF801638374838583968381E08F0D94
:104070008A3010F00C94252E80937702F09077020E
:10408000BF9C800111240F5C1D4FD801CC928CEF96
:10409000860D11968C93119712965C920E94AE1A1F
:1040A000F801638374838583968381E08F0D8A3062
:1040B00010F00C94292E80937702F0907702BF9C29
:1040C000800111240F5C1D4FD801CC9284E0860D35
:1040D00011968C93119712965C920E94AE1AF80179
:1040E000638374838583968381E08F0D8A3010F01B
:1040F0000C942D2E8093770210922C0320E030E058
:1041000040E752E420930B0130930C0140930D01E2
:1041100050930E0180E090E0ACE3B2E4809307019D
:1041200090930801A0930901B0930A01C092020183
:1041300010921E0210921F02109220021092210271
:1041400010921A0210921B0210921C0210921D0271
:104150008091010181508093010187FD90922C0391
:1041600020E9E22EFF24F39408EC10E028EC30E084
:1041700048E552E068EC70E080E293E00E94B417FA
:104180000CE211E00E94F01460E88FE390E00E94DE
:1041900004160E94280B0E94D9070E9463070E9400
:1041A000850C40E054E060E573E084E597E00E9410
:1041B000E0100E9470140150110921F7D394CCCE65
:1041C0008090240390902503A0902603B0902703AD
:1041D0001091280320E030E040EE50E4C501B40126
:1041E0000E94C32E0E943B2F6C1588F1C501B401BB
:1041F0000E943B2FD61658F187E0810F831538F1C6
:10420000211628F11092290380917601909177016F
:10421000A0917801B091790186509F4FAF4FBF4F69
:104220008093760190937701A0937801B093790100
:1042300094E6E92EF12C00EC1DE022E330E040EEA4
:1042400056E062E370E080E793E00E94B41780914B
:104250002B03811148C080902C0290902D02A090D9
:104260002E02B0902F021091300220E030E040EE9C
:1042700050E4C501B4010E94C32E0E943B2F6C156F
:1042800090F1C501B4010E943B2FD61660F187E082
:10429000810F831540F1211630F181E080932B03CB
:1042A0008091760190917701A0917801B091790188
:1042B0008C599F4FAF4FBF4F8093760190937701FA
:1042C000A0937801B093790184E6E82EF12C00EEFA
:1042D00016E022E330E040E753E062E370E088EB71
:1042E00091E00E94B41780912B03833009F048C0FD
:1042F0008090260290902702A0902802B090290278
:1043000010912A0220E030E040EE50E4C501B401F3
:104310000E94C32E0E943B2F6C1590F1C501B40181
:104320000E943B2FD61660F187E0810F831540F184
:10433000211630F184E080932B03809176019091D7
:104340007701A0917801B09179018C599F4FAF4FBF
:10435000BF4F8093760190937701A0937801B0933B
:10436000790104E6E02EF12C00EE16E022E330E0C5
:1043700040E753E062E370E088EB91E00E94B417FD
:1043800080912B038650823008F05AC04090030180
:104390005090040160900501709006018090220207
:1043A00090902302A0902402B090250220E030E0FB
:1043B00040EE50E4C301B2010E94C32E0E943B2F85
:1043C0006C15F0F1C301B2010E943B2FD616C0F16B
:1043D00020E030E040EE50E4C501B4010E94C32E5D
:1043E0000E943B2F631560F1C501B4010E943B2F71
:1043F000261630F188E080932B038091760190910E
:104400007701A0917801B09179018C599F4FAF4FFE
:10441000BF4F8093760190937701A0937801B0937A
:10442000790114E6E12EF12C00EE16E022E330E0F3
:1044300040E753E062E370E088EB91E00E94B4173C
:1044400080912B038A3009F0BCC08090720190905B
:104450007301A0907401B090750110912B0220E0BF
:1044600030E040EE50E4C501B4010E94C32E0E942A
:104470003B2F6C1508F4A5C0C501B4010E943B2F69
:10448000062FD61608F49DC087E0810F831508F427
:1044900098C0211608F495C08BE080932B03F09010
:1044A000770297E0F99E90011124D901AF5CBD4FCE
:1044B0006D0181E08C9311961C9320E030E040E880
:1044C00050E4C501B4010E94C32E0E943B2FF601A7
:1044D00062830E94AE1AD60113966D937D938D93DD
:1044E0009C93169781E08F0D8A3018F480937702A1
:1044F00002C010927702F0907702B7E0FB9E900125
:104500001124F901EF5CFD4F6F0181E080838CEF96
:10451000810F818302830E94AE1AD60113966D9398
:104520007D938D939C93169781E08F0D8A3018F4BC
:104530008093770202C010927702F0907702B7E082
:10454000FB9E90011124F901EF5CFD4F6F0181E0AA
:1045500080831C5F118302830E94AE1AD6011396DA
:104560006D937D938D939C93169781E08F0D8A3088
:1045700018F48093770202C010927702B4E6EB2E13
:10458000F12C00EE16E022E330E040E753E062E376
:1045900070E088EB91E00E94B417809176019091D1
:1045A0007701A0917801B09179018C509E4FAF4F67
:1045B000BF4F8093760190937701A0937801B093D9
:1045C00079010E94DC1783FD04C00E94DC1787FF7D
:1045D00050C081E08093360340E050E060E87FEB1C
:1045E00040931A0250931B0260931C0270931D02A9
:1045F0009091300391113AC010917702B7E01B9F60
:1046000090011124F901EF5CFD4F7F0180836091DF
:104610000B0170910C0180910D0190910E010E948F
:104620003B2FD70111966C9320E030E040E051E43D
:1046300060910701709108018091090190910A0130
:104640000E94C32E0E943B2FF70162830E94AE1A84
:10465000D70113966D937D938D939C9316971F5F4F
:104660001A3010F00C94312E1093770281E0809371
:1046700030030E94DC1783FD19C00E94DC1787FD00
:1046800015C080913603813079F482E0809336033F
:1046900080E090E0A0E0BFE380931A0290931B02B9
:1046A000A0931C02B0931D02109230030E94DC17ED
:1046B00086FD08C010921E0210921F021092200266
:1046C000109221020E94DC1785FD08C010921E0284
:1046D00010921F0210922002109221020E94DC17F9
:1046E00086FF0FC080E090E0A0E8BFE380931E0249
:1046F00090931F02A0932002B093210281E0809347
:1047000002010E94DC1785FF0EC080E090E0A0E867
:10471000BFE380931E0290931F02A0932002B093E8
:1047200021021092020180912B038B3008F091C07E
:104730000E94DC1782FF16C00E94AE1A009132035D
:10474000109133032091340330913503DC01CB0108
:10475000801B910BA20BB30B85369105A105B1050A
:1047600030F477C00E94DC1784FDE6CF72C0109150
:104770003103E12FF0E060910B0170910C01809109
:104780000D0190910E0100910201002311F40C948F
:10479000392E20E030E040E251E4A3E0EE0FFF1FAD
:1047A000AA95E1F7DF01A658BE4F7D010E94C32EF6
:1047B0000E943B2FF701608381E0828320E030E09C
:1047C00040E151E460910701709108018091090175
:1047D00090910A010E94C32E0E943B2FD70111968F
:1047E0006C93119713960C930E94AE1AF701648391
:1047F0007583868397831F5F143110F00C94352ED8
:104800001093310302E310E061E082E00E946C1932
:1048100060E085E00E946C19C8010E940B1A60E0FC
:1048200082E00E946C1961E085E00E946C19C80169
:104830000E940B1A0F5F1F4F0D37110529F70E94B9
:10484000AE1A6093320370933303809334039093D2
:10485000350360910B0170910C0180910D019091D5
:104860000E01E091020100911E0210911F022091A1
:10487000200230912102A9019801E11101C0505894
:104880000E94C32E4B015C0160930B0170930C01DD
:1048900080930D0190930E0120911A0230911B021A
:1048A00040911C0250911D02609107017091080116
:1048B0008091090190910A010E94C32E6B017C0135
:1048C00060930701709308018093090190930A0196
:1048D00020E030E04EEE52E4C501B4010E94743095
:1048E0001816A4F410921E0210921F0210922002B9
:1048F0001092210280E090E0AEEEB2E480930B01D2
:1049000090930C01A0930D01B0930E0120E030E0D4
:10491000A90160910B0170910C0180910D019091A2
:104920000E010E942F2F87FF10C010921E021092BE
:104930001F02109220021092210210920B0110927D
:104940000C0110920D0110920E0120E030E0A9013F
:10495000C701B6010E942F2F87FF10C010921A02C4
:1049600010921B0210921C0210921D02109207015D
:10497000109208011092090110920A0120E030E023
:104980004CE352E4609107017091080180910901A4
:1049900090910A010E94743087FD18C010921A028B
:1049A00010921B0210921C0210921D02C12CD12CDD
:1049B0004CE3E42E42E4F42EC0920701D0920801A9
:1049C000E0920901F0920A0110923603209036031A
:1049D000C0900701D0900801E0900901F0900A0111
:1049E000C982DA82EB82FC8280900B0190900C01EC
:1049F000A0900D01B0900E01C0901A02D0901B0241
:104A0000E0901C02F0901D0220E030E040EC50E409
:104A1000C501B4010E94C32E6F83788789879A8766
:104A200022E436E03E832D838901F8013296849199
:104A3000F8017490770C770C770C31963490272D11
:104A4000F8E08F9F200D11242B87211032C020E029
:104A500030E04CE352E469817A818B819C810E9431
:104A60002F2F87FF26C0672D70E080E090E00E9426
:104A70006C2F9B01AC016F81788589859A850E9496
:104A80002F2F87FD0FC03B85632F70E080E090E003
:104A90000E946C2F9B01AC01C501B4010E947430CF
:104AA00018163CF4C12CD12CE12C2FE3F22E32E06D
:104AB000232E672D70E080E090E00E946C2F9B0118
:104AC000AC016F81788589859A850E94743087FD55
:104AD0004EC020E030E040E850E4C501B4010E943F
:104AE000C32E2B013C014B85642F70E080E090E0E9
:104AF0000E946C2F9B01AC01C301B2010E942F2FB9
:104B00001816ACF1330C330C330C632D70E0FB0141
:104B10007097BF01FF0F880B990B0E946C2F2B0120
:104B20003C019B01AC0169817A818B819C810E944F
:104B30002F2F81111CC01092360340920701509212
:104B400008016092090170920A0110921E021092EF
:104B50001F02109220021092210210921A0210924B
:104B60001B0210921C0210921D021F8E07C10D5FC6
:104B70001F4F56E00B34150709F057CF209236032C
:104B8000C0921A02D0921B02E0921C02F0921D0207
:104B9000ECCFCF8C2C2C312C91E1D92ED29CF00172
:104BA000D39CF00D1124E758FD4FE088ED86008579
:104BB0001185228533854484558466847784608199
:104BC000718182819381A9019801E11001C050583F
:104BD0000E94C32E6B017C0121E1229D8001239D57
:104BE000100D112407581D4FD8016D937D938D939F
:104BF0009D93BA83A983F801248135814681578129
:104C0000C301B2010E94C32E4B015C01D80114966E
:104C10006D937D938D939C9317970E943B2F6F8389
:104C200020E030E040EE50E4C501B4010E94C32E04
:104C30000E943B2FA62EC701B6010E943B2FB62E25
:104C400020E030E040EE50E4C701B6010E94C32EE0
:104C50000E943B2FF62E82E4C82E86E0D82E480113
:104C6000F8013C96FF87EE87A30192015058288FE8
:104C7000398F4A8F5B8FA801405F5F4F5C874B87FE
:104C8000C80108969D8F8C8FF60132969491F6019B
:104C900084913196E491EE0FEE0FEE0F23E02E0F8C
:104CA000EF802E1508F071C0B3E0CB0ED11CEBE401
:104CB000CE16E6E0DE0641F701E1C02EC29CF0010F
:104CC000C39CF00D1124E758FD4FC080D180E280D5
:104CD000F38020E030E04EEF52E4C701B6010E94BD
:104CE000743018160CF4EFC020E030E040EE50ECC9
:104CF000C701B6010E942F2F87FDE5C0B1E1B29D2B
:104D0000F001B39DF00D1124E758FD4FC480D5800C
:104D1000E680F78020E030E044E652E4C701B601C7
:104D20000E94743018160CF4F2C020E030E040EE1F
:104D300050E4C701B6010E942F2F87FDE8C00E94F2
:104D4000B83128EB3BE040E050E00E94DC316C3DA4
:104D500075408105910509F4EDC00E94B83128EE37
:104D600033E040E050E00E94DC31643F7140810557
:104D7000910509F4E4C04F8D4F5F4F8F80910F0173
:104D8000CF8CC81608F405CFDFC0AE1608F48CCF60
:104D9000880F880F880F482F38E0939F400D11240B
:104DA0004B1508F481CFF81608F47ECF30917802C5
:104DB00031116BC0E090770257E05E9D80011124B5
:104DC0000F5C1D4FE1E0D801EC931196BC92119756
:104DD000FF811296FC930E94AE1AD80113966D9330
:104DE0007D938D939C93169781E08E0D8A3018F4F5
:104DF0008093770202C0109277020E94B83122E0BD
:104E000030E040E050E00E94DC3111E0672B682B7D
:104E1000692B21F410E00E94730C02C00E94640C04
:104E20002B013C010E94550C688B798B8A8B9B8BE4
:104E30000E94320C6C8B7D8B8E8B9F8B0E942B0C77
:104E4000F4014082518262827382288939894A89B9
:104E50005B89A981BA812D933D934D935C93139700
:104E60002C893D894E895F89AC8DBD8D2D933D93F5
:104E70004D935C931397EE85FF85608371838283E6
:104E80009383AB85BC851C930FCFB81610F04F15DC
:104E900040F4AB85BC858C91B1E08B27AB85BC859C
:104EA0008C932A1520F0EF80EE1608F0FDCE288DA9
:104EB000398D4A8D5B8DAE85BF852D933D934D9386
:104EC0005C931397F1CEDD84D11005C080E090E0B3
:104ED000AEEFB2E404C080E090E0A0EEB0EC11E1EF
:104EE000E12EE29C8001E39C100D112407581D4F18
:104EF000F80180839183A283B3830E94320CD8018E
:104F000018966D937D938D939C931B97F7CEA1E19B
:104F1000CA2EC29CF001C39CF00D1124E758FD4F2E
:104F200084859585A685B785B05884879587A6879B
:104F3000B78705CF809178028111A1C60ECF8091ED
:104F400078028111A9C617CF8091290381110EC063
:104F500010912B03812F90E0FC013197E930F1058E
:104F600008F069C2EA5AFF4F0C94BC2E0091280346
:104F700010E0780126E0E20EF11C0F5F1F4F8090D9
:104F8000240390902503A0902603B0902703F2E419
:104F90004F2EF6E05F2EF2013296D490F201C490CB
:104FA00031967490C501B4010E943B2F70E0770CDC
:104FB000770C770C872D90E0089768177907C1F474
:104FC000CC0CCC0CCC0C8C2D90E0E816F90684F0BF
:104FD000F8E0DF9EC00C11248C2D90E00817190713
:104FE0003CF4072E000C880B990B0E946C2F08C014
:104FF0002DEC3CEC4CEC5DE3C501B4010E94C32EEA
:105000004B015C0120E030E04CE552E40E9474303A
:10501000181634F4812C912CECE5AE2EE2E4BE2E71
:1050200023E0420E511C3BE4431636E0530609F0E0
:10503000B2CF8092240390922503A0922603B092CF
:10504000270381E08093290383CFC0900B01D09088
:105050000C01E0900D01F0900E01C701B6010E9415
:105060003B2F6093300220E030E040E051E460915B
:105070000701709108018091090190910A010E9435
:10508000C32E60932C0270932D0280932E02909376
:105090002F0260912B0270E080E090E00E946C2F64
:1050A0009B01AC01C701B6010E942F2F8111C3C122
:1050B00082E0BFC12DEC3CEC4CE45EE360912C023D
:1050C00070912D0280912E0290912F020E94C32E8A
:1050D0006B017C0120E030E04CE352E40E9474302C
:1050E00087FF09C0C0922C02D0922D02E0922E02BE
:1050F000F0922F02A0C180E090E0ACE3B2E4809394
:105100002C0290932D02A0932E02B0932F0283E0E5
:1051100090C1C0900B01D0900C01E0900D01F09077
:105120000E01C701B6010E943B2F60932A0220E0C6
:1051300030E040E051E460910701709108018091F6
:10514000090190910A010E94C32E60932602709378
:105150002702809328029093290260912B0270E02D
:1051600080E090E00E946C2F9B01AC01C701B6016A
:105170000E942F2F81115FC185E05BC12DEC3CECBB
:105180004CE45EE360912602709127028091280230
:10519000909129020E94C32E6B017C0120E030E037
:1051A0004CE152E40E94743087FF09C0C09226028D
:1051B000D0922702E0922802F09229023CC180E0BE
:1051C00090E0ACE1B2E48093260290932702A09392
:1051D0002802B09329020E94030C6093220270936C
:1051E0002302809324029093250280E090E0A0E0C7
:1051F000B1EC8093030190930401A0930501B09357
:10520000060114C1409022025090230260902402B3
:10521000709025028090030190900401A0900501F8
:10522000B0900601ED81FE813296E490ED81FE8121
:10523000F49031960491C501B4010E943B2FC62E13
:10524000D12C000F000F000FE02FF0E03897CE16A2
:10525000DF0609F049C0FF0CFF0CFF0C20E030E036
:1052600040EC50E4C301B2010E94C32E69837A83EB
:105270008B839C836F2D70E080E090E00E946C2F08
:105280009B01AC0169817A818B819C810E94743081
:1052900087FD2AC020E030E040E050E4C301B201C5
:1052A0000E94C32E69837A838B839C836F2DF8E0E1
:1052B000EF9E600D112470E080E090E00E946C2F62
:1052C0009B01AC0169817A818B819C810E942F2F87
:1052D000181654F0B601DD0C880B990B0E946C2F48
:1052E0004B015C0117E00AC02DEC3CEC4CEC5DE39B
:1052F000C501B4010E94C32E4B015C0120E030E0E7
:105300004CE552E4C501B4010E94743018163CF417
:1053100017E0812C912C7CE5A72E72E4B72E2D810D
:105320003E812D5F3F4F3E832D832B54364009F045
:1053300079CF8092030190920401A0920501B0926E
:10534000060110932B0377C0C0900B01D0900C0185
:10535000E0900D01F0900E01C0922202D092230243
:10536000E0922402F092250220E030E040E051E497
:1053700060910701709108018091090190910A01E3
:105380000E94C32E60930301709304018093050172
:105390009093060160912B0270E080E090E00E9403
:1053A0006C2F9B01AC01C701B6010E942F2F811108
:1053B00042C089E03EC02DEC3CEC4CE45EE36091E1
:1053C00003017091040180910501909106010E94F2
:1053D000C32E6093030170930401809305019093A1
:1053E000060120E030E04CE552E40E94743087FD75
:1053F00022C00E94030C60932202709323028093C8
:1054000024029093250280E090E0A0E0B1EC80932C
:10541000030190930401A0930501B09306018091CC
:105420003B03875E80933B03843610F486E001C023
:105430008AE080932B0380912B03873090F080913A
:10544000290381110EC00E94B83124EF31E040E001
:1054500050E00E94DC316A3F71058105910509F435
:105460002AC40E94AE1A009137031091380320918C
:10547000390330913A03DC01CB01801B910BA20B65
:10548000B30BC397A105B10508F4CBC380912A03E0
:105490008F5F843018F480932A0302C010922A038D
:1054A0000E94AE1A609337037093380380933903D8
:1054B00090933A03B6C34091760150917701609181
:1054C0007801709179018091500790915107A091D6
:1054D0005207B091530784179507A607B70708F43A
:1054E00042C064E670E080E090E00E943B1A0E94B7
:1054F000F01482E08093CC0788E090E09093C70797
:105500008093C60788E290E09093C9078093C8070C
:105510008FE391E00E942B1681E08093CC0786E117
:1055200090E09093C7078093C60782E090E0909345
:10553000C9078093C8074091760150917701609127
:105540007801709179018091500790915107A09155
:105550005207B091530784179507A607B707F8F4C9
:105560008AE491E024C006E711E060E1E62E62E003
:10557000F62ED8016D918D01C7016E8F0E94C63144
:105580006E8D681719F0C7010E94CE31BFEFEB1A7C
:10559000FB0AE4E1EE16E2E0FE0659F7A2CF80E353
:1055A00090E09093C7078093C60783E591E00E943F
:1055B0002B16C0907601D0907701E0907801F090A2
:1055C0007901C701B6010E946A2F0E9479300E94BA
:1055D000A72F20E030E040E85FE30E94C32E0E9446
:1055E0003B2F8EE190E0861B9109880F991F9093C5
:1055F000C7078093C60782E190E09093C907809324
:10560000C8074AE0C701B6010E943D160E94701407
:1056100040E054E060E573E084E597E00E94E0102C
:1056200068E873E180E090E00E943B1A81E080939B
:10563000000192E090930F0110922F0310927101DC
:105640001092780210922C0310922B0394E0909306
:105650000101109276011092770110927801109258
:10566000790140E050E060E071EC40930301509319
:105670000401609305017093060110923B03C12C55
:10568000D12C50E7E52E52E4F52EC0920B01D092BA
:105690000C01E0920D01F0920E0120E030E04CE3AD
:1056A00052E420930701309308014093090150937D
:1056B0000A0110921E0210921F02109220021092F4
:1056C000210210921A0210921B0210921C021092D8
:1056D0001D028093020110923603109277021092FD
:1056E000300310922E030E94AE0B0E94650B0E94A5
:1056F000450E0E94B60E95C20E94AE0B10922B036F
:10570000809100018F5F80930001809178028F5F0C
:10571000883019F0809378020AC010927802809144
:105720000F018F5F8B3008F08AE080930F010E9499
:10573000B60E80912F038F5F80932F03853009F47D
:105740005CC2812C912C30EAA32E31ECB32E0E9446
:10575000F01480917101813009F475C0E8F1823054
:1057600009F4A8C0833009F0DFC06091260270916F
:10577000270280912802909129020E94342F3091B3
:105780002A0208E028E042E855E0832F90E00E94DA
:10579000051560912C0270912D0280912E0290913E
:1057A0002F020E94342F3091300228E04AE755E062
:1057B000832F90E00E940515609172017091730132
:1057C00080917401909175010E94342F30912B02C9
:1057D00028E042E755E0A4C06091260270912702BC
:1057E00080912802909129020E94342F30912A0240
:1057F00008E028E04AEC55E0832F90E00E94051570
:1058000060912C0270912D0280912E0290912F02B6
:105810000E94342F3091300228E042EC55E0832F73
:1058200090E00E9405156091720170917301809162
:105830007401909175010E94342F30912B0228E061
:105840004AEB55E06DC0609126027091270280916D
:105850002802909129020E94342F30912A0208E0F8
:1058600028E042EB55E0832F90E00E9405156091FF
:105870002C0270912D0280912E0290912F020E9495
:10588000342F3091300228E04AEA55E0832F90E02F
:105890000E940515609172017091730180917401ED
:1058A000909175010E94342F30912B0228E042EA3A
:1058B00055E036C06091260270912702809128023F
:1058C000909129020E94342F30912A0208E028E0AA
:1058D0004AE955E0832F90E00E94051560912C0263
:1058E00070912D0280912E0290912F020E94342FF0
:1058F0003091300228E042E955E0832F90E00E9489
:1059000005156091720170917301809174019091FD
:1059100075010E94342F30912B0228E04AE855E0AF
:10592000832F90E00E94051580912A0380FF05C017
:1059300022E6622E25E0722E04C09AE6692E95E0DA
:10594000792EC0907201D0907301E0907401F090B4
:10595000750120E030E040E051E4C701B6010E944B
:10596000C32E0E94342F30912B0208E028E0A301BF
:10597000832F90E00E9405152DEC3CEC4CE45EE397
:10598000609126027091270280912802909129024D
:105990000E94C32E609326027093270280932802F0
:1059A000909329022DEC3CEC4CE45EE360912C02D8
:1059B00070912D0280912E0290912F020E94C32E91
:1059C00060932C0270932D0280932E0290932F02ED
:1059D0002DEC3CEC4CE45EE3C701B6010E94C32E03
:1059E00060937201709373018093740190937501B9
:1059F0008092070190920801A0920901B0920A01D9
:105A000060E88FE390E00E9404160E94280B0E9439
:105A100070140E942B070E94AE1A00913703109158
:105A200038032091390330913A03DC01CB01801B0C
:105A3000910BA20BB30BC397A105B105A0F0809108
:105A40002A038F5F843018F480932A0302C01092D7
:105A50002A030E94AE1A6093370370933803809331
:105A6000390390933A0340E054E060E573E084E545
:105A700097E00E94E010C0907201D0907301E09016
:105A80007401F090750120E030E04CE552E4C7016C
:105A9000B6010E942F2F18160CF059CE00917702F4
:105AA00047E0049F90011124C9018F5C9D4F5C0168
:105AB00081E0D5018C9310912B0211961C9320E06C
:105AC00030E040E850E4C701B6010E94C32E0E94B6
:105AD0003B2FF50162830E94AE1AD50113966D9398
